{
  "contractName": "ScratchNFT",
  "abi": [
    {
      "inputs": [],
      "stateMutability": "nonpayable",
      "type": "constructor"
    },
    {
      "anonymous": false,
      "inputs": [
        {
          "indexed": true,
          "internalType": "address",
          "name": "owner",
          "type": "address"
        },
        {
          "indexed": true,
          "internalType": "address",
          "name": "approved",
          "type": "address"
        },
        {
          "indexed": true,
          "internalType": "uint256",
          "name": "tokenId",
          "type": "uint256"
        }
      ],
      "name": "Approval",
      "type": "event"
    },
    {
      "anonymous": false,
      "inputs": [
        {
          "indexed": true,
          "internalType": "address",
          "name": "owner",
          "type": "address"
        },
        {
          "indexed": true,
          "internalType": "address",
          "name": "operator",
          "type": "address"
        },
        {
          "indexed": false,
          "internalType": "bool",
          "name": "approved",
          "type": "bool"
        }
      ],
      "name": "ApprovalForAll",
      "type": "event"
    },
    {
      "anonymous": false,
      "inputs": [
        {
          "indexed": true,
          "internalType": "address",
          "name": "previousOwner",
          "type": "address"
        },
        {
          "indexed": true,
          "internalType": "address",
          "name": "newOwner",
          "type": "address"
        }
      ],
      "name": "OwnershipTransferred",
      "type": "event"
    },
    {
      "anonymous": false,
      "inputs": [
        {
          "indexed": true,
          "internalType": "address",
          "name": "from",
          "type": "address"
        },
        {
          "indexed": true,
          "internalType": "address",
          "name": "to",
          "type": "address"
        },
        {
          "indexed": true,
          "internalType": "uint256",
          "name": "tokenId",
          "type": "uint256"
        }
      ],
      "name": "Transfer",
      "type": "event"
    },
    {
      "inputs": [
        {
          "internalType": "address",
          "name": "to",
          "type": "address"
        },
        {
          "internalType": "uint256",
          "name": "tokenId",
          "type": "uint256"
        }
      ],
      "name": "approve",
      "outputs": [],
      "stateMutability": "nonpayable",
      "type": "function"
    },
    {
      "inputs": [
        {
          "internalType": "address",
          "name": "owner",
          "type": "address"
        }
      ],
      "name": "balanceOf",
      "outputs": [
        {
          "internalType": "uint256",
          "name": "",
          "type": "uint256"
        }
      ],
      "stateMutability": "view",
      "type": "function",
      "constant": true
    },
    {
      "inputs": [],
      "name": "baseExtension",
      "outputs": [
        {
          "internalType": "string",
          "name": "",
          "type": "string"
        }
      ],
      "stateMutability": "view",
      "type": "function",
      "constant": true
    },
    {
      "inputs": [],
      "name": "baseURI",
      "outputs": [
        {
          "internalType": "string",
          "name": "",
          "type": "string"
        }
      ],
      "stateMutability": "view",
      "type": "function",
      "constant": true
    },
    {
      "inputs": [],
      "name": "cost",
      "outputs": [
        {
          "internalType": "uint256",
          "name": "",
          "type": "uint256"
        }
      ],
      "stateMutability": "view",
      "type": "function",
      "constant": true
    },
    {
      "inputs": [
        {
          "internalType": "uint256",
          "name": "tokenId",
          "type": "uint256"
        }
      ],
      "name": "getApproved",
      "outputs": [
        {
          "internalType": "address",
          "name": "",
          "type": "address"
        }
      ],
      "stateMutability": "view",
      "type": "function",
      "constant": true
    },
    {
      "inputs": [
        {
          "internalType": "address",
          "name": "owner",
          "type": "address"
        },
        {
          "internalType": "address",
          "name": "operator",
          "type": "address"
        }
      ],
      "name": "isApprovedForAll",
      "outputs": [
        {
          "internalType": "bool",
          "name": "",
          "type": "bool"
        }
      ],
      "stateMutability": "view",
      "type": "function",
      "constant": true
    },
    {
      "inputs": [],
      "name": "maxMintAmount",
      "outputs": [
        {
          "internalType": "uint256",
          "name": "",
          "type": "uint256"
        }
      ],
      "stateMutability": "view",
      "type": "function",
      "constant": true
    },
    {
      "inputs": [],
      "name": "maxSupply",
      "outputs": [
        {
          "internalType": "uint256",
          "name": "",
          "type": "uint256"
        }
      ],
      "stateMutability": "view",
      "type": "function",
      "constant": true
    },
    {
      "inputs": [],
      "name": "name",
      "outputs": [
        {
          "internalType": "string",
          "name": "",
          "type": "string"
        }
      ],
      "stateMutability": "view",
      "type": "function",
      "constant": true
    },
    {
      "inputs": [],
      "name": "owner",
      "outputs": [
        {
          "internalType": "address",
          "name": "",
          "type": "address"
        }
      ],
      "stateMutability": "view",
      "type": "function",
      "constant": true
    },
    {
      "inputs": [
        {
          "internalType": "uint256",
          "name": "tokenId",
          "type": "uint256"
        }
      ],
      "name": "ownerOf",
      "outputs": [
        {
          "internalType": "address",
          "name": "",
          "type": "address"
        }
      ],
      "stateMutability": "view",
      "type": "function",
      "constant": true
    },
    {
      "inputs": [],
      "name": "paused",
      "outputs": [
        {
          "internalType": "bool",
          "name": "",
          "type": "bool"
        }
      ],
      "stateMutability": "view",
      "type": "function",
      "constant": true
    },
    {
      "inputs": [],
      "name": "renounceOwnership",
      "outputs": [],
      "stateMutability": "nonpayable",
      "type": "function"
    },
    {
      "inputs": [
        {
          "internalType": "address",
          "name": "from",
          "type": "address"
        },
        {
          "internalType": "address",
          "name": "to",
          "type": "address"
        },
        {
          "internalType": "uint256",
          "name": "tokenId",
          "type": "uint256"
        }
      ],
      "name": "safeTransferFrom",
      "outputs": [],
      "stateMutability": "nonpayable",
      "type": "function"
    },
    {
      "inputs": [
        {
          "internalType": "address",
          "name": "from",
          "type": "address"
        },
        {
          "internalType": "address",
          "name": "to",
          "type": "address"
        },
        {
          "internalType": "uint256",
          "name": "tokenId",
          "type": "uint256"
        },
        {
          "internalType": "bytes",
          "name": "_data",
          "type": "bytes"
        }
      ],
      "name": "safeTransferFrom",
      "outputs": [],
      "stateMutability": "nonpayable",
      "type": "function"
    },
    {
      "inputs": [
        {
          "internalType": "address",
          "name": "operator",
          "type": "address"
        },
        {
          "internalType": "bool",
          "name": "approved",
          "type": "bool"
        }
      ],
      "name": "setApprovalForAll",
      "outputs": [],
      "stateMutability": "nonpayable",
      "type": "function"
    },
    {
      "inputs": [
        {
          "internalType": "bytes4",
          "name": "interfaceId",
          "type": "bytes4"
        }
      ],
      "name": "supportsInterface",
      "outputs": [
        {
          "internalType": "bool",
          "name": "",
          "type": "bool"
        }
      ],
      "stateMutability": "view",
      "type": "function",
      "constant": true
    },
    {
      "inputs": [],
      "name": "symbol",
      "outputs": [
        {
          "internalType": "string",
          "name": "",
          "type": "string"
        }
      ],
      "stateMutability": "view",
      "type": "function",
      "constant": true
    },
    {
      "inputs": [
        {
          "internalType": "uint256",
          "name": "index",
          "type": "uint256"
        }
      ],
      "name": "tokenByIndex",
      "outputs": [
        {
          "internalType": "uint256",
          "name": "",
          "type": "uint256"
        }
      ],
      "stateMutability": "view",
      "type": "function",
      "constant": true
    },
    {
      "inputs": [
        {
          "internalType": "address",
          "name": "owner",
          "type": "address"
        },
        {
          "internalType": "uint256",
          "name": "index",
          "type": "uint256"
        }
      ],
      "name": "tokenOfOwnerByIndex",
      "outputs": [
        {
          "internalType": "uint256",
          "name": "",
          "type": "uint256"
        }
      ],
      "stateMutability": "view",
      "type": "function",
      "constant": true
    },
    {
      "inputs": [],
      "name": "totalSupply",
      "outputs": [
        {
          "internalType": "uint256",
          "name": "",
          "type": "uint256"
        }
      ],
      "stateMutability": "view",
      "type": "function",
      "constant": true
    },
    {
      "inputs": [
        {
          "internalType": "address",
          "name": "from",
          "type": "address"
        },
        {
          "internalType": "address",
          "name": "to",
          "type": "address"
        },
        {
          "internalType": "uint256",
          "name": "tokenId",
          "type": "uint256"
        }
      ],
      "name": "transferFrom",
      "outputs": [],
      "stateMutability": "nonpayable",
      "type": "function"
    },
    {
      "inputs": [
        {
          "internalType": "address",
          "name": "newOwner",
          "type": "address"
        }
      ],
      "name": "transferOwnership",
      "outputs": [],
      "stateMutability": "nonpayable",
      "type": "function"
    },
    {
      "inputs": [
        {
          "internalType": "address",
          "name": "_to",
          "type": "address"
        },
        {
          "internalType": "uint256",
          "name": "_mintAmount",
          "type": "uint256"
        }
      ],
      "name": "mint",
      "outputs": [],
      "stateMutability": "payable",
      "type": "function",
      "payable": true
    },
    {
      "inputs": [
        {
          "internalType": "address",
          "name": "_owner",
          "type": "address"
        }
      ],
      "name": "walletOfOwner",
      "outputs": [
        {
          "internalType": "uint256[]",
          "name": "",
          "type": "uint256[]"
        }
      ],
      "stateMutability": "view",
      "type": "function",
      "constant": true
    },
    {
      "inputs": [
        {
          "internalType": "uint256",
          "name": "tokenId",
          "type": "uint256"
        }
      ],
      "name": "tokenURI",
      "outputs": [
        {
          "internalType": "string",
          "name": "",
          "type": "string"
        }
      ],
      "stateMutability": "view",
      "type": "function",
      "constant": true
    },
    {
      "inputs": [
        {
          "internalType": "uint256",
          "name": "_newmaxMintAmount",
          "type": "uint256"
        }
      ],
      "name": "setmaxMintAmount",
      "outputs": [],
      "stateMutability": "nonpayable",
      "type": "function"
    },
    {
      "inputs": [
        {
          "internalType": "string",
          "name": "_newBaseURI",
          "type": "string"
        }
      ],
      "name": "setBaseURI",
      "outputs": [],
      "stateMutability": "nonpayable",
      "type": "function"
    },
    {
      "inputs": [
        {
          "internalType": "string",
          "name": "_newBaseExtension",
          "type": "string"
        }
      ],
      "name": "setBaseExtension",
      "outputs": [],
      "stateMutability": "nonpayable",
      "type": "function"
    },
    {
      "inputs": [
        {
          "internalType": "bool",
          "name": "_state",
          "type": "bool"
        }
      ],
      "name": "pause",
      "outputs": [],
      "stateMutability": "nonpayable",
      "type": "function"
    },
    {
      "inputs": [],
      "name": "withdraw",
      "outputs": [],
      "stateMutability": "payable",
      "type": "function",
      "payable": true
    }
  ],
  "bytecode": "0x60806040526040518060400160405280600581526020017f2e6a736f6e000000000000000000000000000000000000000000000000000000815250600c90805190602001906200005192919062000266565b5066038d7ea4c68000600d556103e8600e556005600f556000601060006101000a81548160ff0219169083151502179055503480156200009057600080fd5b506040518060400160405280601681526020017f53637261746368204e465420436f6c6c656374696f6e000000000000000000008152506040518060400160405280600381526020017f534e43000000000000000000000000000000000000000000000000000000000081525081600090805190602001906200011592919062000266565b5080600190805190602001906200012e92919062000266565b50505062000151620001456200019860201b60201c565b620001a060201b60201c565b33601060016101000a81548173ffffffffffffffffffffffffffffffffffffffff021916908373ffffffffffffffffffffffffffffffffffffffff1602179055506200037b565b600033905090565b6000600a60009054906101000a900473ffffffffffffffffffffffffffffffffffffffff16905081600a60006101000a81548173ffffffffffffffffffffffffffffffffffffffff021916908373ffffffffffffffffffffffffffffffffffffffff1602179055508173ffffffffffffffffffffffffffffffffffffffff168173ffffffffffffffffffffffffffffffffffffffff167f8be0079c531659141344cd1fd0a4f28419497f9722a3daafe3b4186f6b6457e060405160405180910390a35050565b828054620002749062000345565b90600052602060002090601f016020900481019282620002985760008555620002e4565b82601f10620002b357805160ff1916838001178555620002e4565b82800160010185558215620002e4579182015b82811115620002e3578251825591602001919060010190620002c6565b5b509050620002f39190620002f7565b5090565b5b8082111562000312576000816000905550600101620002f8565b5090565b7f4e487b7100000000000000000000000000000000000000000000000000000000600052602260045260246000fd5b600060028204905060018216806200035e57607f821691505b6020821081141562000375576200037462000316565b5b50919050565b614138806200038b6000396000f3fe6080604052600436106101e35760003560e01c80635c975abb11610102578063a22cb46511610095578063d5abeb0111610064578063d5abeb01146106d8578063da3ef23f14610703578063e985e9c51461072c578063f2fde38b14610769576101e3565b8063a22cb4651461061e578063b88d4fde14610647578063c668286214610670578063c87b56dd1461069b576101e3565b8063715018a6116100d1578063715018a6146105885780637f00c7a61461059f5780638da5cb5b146105c857806395d89b41146105f3576101e3565b80635c975abb146104b85780636352211e146104e35780636c0360eb1461052057806370a082311461054b576101e3565b806323b872dd1161017a57806342842e0e1161014957806342842e0e146103ec578063438b6300146104155780634f6ccce71461045257806355f804b31461048f576101e3565b806323b872dd146103605780632f745c59146103895780633ccfd60b146103c657806340c10f19146103d0576101e3565b8063095ea7b3116101b6578063095ea7b3146102b657806313faede6146102df57806318160ddd1461030a578063239c70ae14610335576101e3565b806301ffc9a7146101e857806302329a291461022557806306fdde031461024e578063081812fc14610279575b600080fd5b3480156101f457600080fd5b5061020f600480360381019061020a9190612aba565b610792565b60405161021c9190612b02565b60405180910390f35b34801561023157600080fd5b5061024c60048036038101906102479190612b49565b61080c565b005b34801561025a57600080fd5b506102636108a5565b6040516102709190612c0f565b60405180910390f35b34801561028557600080fd5b506102a0600480360381019061029b9190612c67565b610937565b6040516102ad9190612cd5565b60405180910390f35b3480156102c257600080fd5b506102dd60048036038101906102d89190612d1c565b6109bc565b005b3480156102eb57600080fd5b506102f4610ad4565b6040516103019190612d6b565b60405180910390f35b34801561031657600080fd5b5061031f610ada565b60405161032c9190612d6b565b60405180910390f35b34801561034157600080fd5b5061034a610ae7565b6040516103579190612d6b565b60405180910390f35b34801561036c57600080fd5b5061038760048036038101906103829190612d86565b610aed565b005b34801561039557600080fd5b506103b060048036038101906103ab9190612d1c565b610b4d565b6040516103bd9190612d6b565b60405180910390f35b6103ce610bf2565b005b6103ea60048036038101906103e59190612d1c565b610cae565b005b3480156103f857600080fd5b50610413600480360381019061040e9190612d86565b610e39565b005b34801561042157600080fd5b5061043c60048036038101906104379190612dd9565b610e59565b6040516104499190612ec4565b60405180910390f35b34801561045e57600080fd5b5061047960048036038101906104749190612c67565b610f07565b6040516104869190612d6b565b60405180910390f35b34801561049b57600080fd5b506104b660048036038101906104b1919061301b565b610f78565b005b3480156104c457600080fd5b506104cd61100e565b6040516104da9190612b02565b60405180910390f35b3480156104ef57600080fd5b5061050a60048036038101906105059190612c67565b611021565b6040516105179190612cd5565b60405180910390f35b34801561052c57600080fd5b506105356110d3565b6040516105429190612c0f565b60405180910390f35b34801561055757600080fd5b50610572600480360381019061056d9190612dd9565b611161565b60405161057f9190612d6b565b60405180910390f35b34801561059457600080fd5b5061059d611219565b005b3480156105ab57600080fd5b506105c660048036038101906105c19190612c67565b6112a1565b005b3480156105d457600080fd5b506105dd611327565b6040516105ea9190612cd5565b60405180910390f35b3480156105ff57600080fd5b50610608611351565b6040516106159190612c0f565b60405180910390f35b34801561062a57600080fd5b5061064560048036038101906106409190613064565b6113e3565b005b34801561065357600080fd5b5061066e60048036038101906106699190613145565b6113f9565b005b34801561067c57600080fd5b5061068561145b565b6040516106929190612c0f565b60405180910390f35b3480156106a757600080fd5b506106c260048036038101906106bd9190612c67565b6114e9565b6040516106cf9190612c0f565b60405180910390f35b3480156106e457600080fd5b506106ed611593565b6040516106fa9190612d6b565b60405180910390f35b34801561070f57600080fd5b5061072a6004803603810190610725919061301b565b611599565b005b34801561073857600080fd5b50610753600480360381019061074e91906131c8565b61162f565b6040516107609190612b02565b60405180910390f35b34801561077557600080fd5b50610790600480360381019061078b9190612dd9565b6116c3565b005b60007f780e9d63000000000000000000000000000000000000000000000000000000007bffffffffffffffffffffffffffffffffffffffffffffffffffffffff1916827bffffffffffffffffffffffffffffffffffffffffffffffffffffffff191614806108055750610804826117bb565b5b9050919050565b61081461189d565b73ffffffffffffffffffffffffffffffffffffffff16610832611327565b73ffffffffffffffffffffffffffffffffffffffff1614610888576040517f08c379a000000000000000000000000000000000000000000000000000000000815260040161087f90613254565b60405180910390fd5b80601060006101000a81548160ff02191690831515021790555050565b6060600080546108b4906132a3565b80601f01602080910402602001604051908101604052809291908181526020018280546108e0906132a3565b801561092d5780601f106109025761010080835404028352916020019161092d565b820191906000526020600020905b81548152906001019060200180831161091057829003601f168201915b5050505050905090565b6000610942826118a5565b610981576040517f08c379a000000000000000000000000000000000000000000000000000000000815260040161097890613347565b60405180910390fd5b6004600083815260200190815260200160002060009054906101000a900473ffffffffffffffffffffffffffffffffffffffff169050919050565b60006109c782611021565b90508073ffffffffffffffffffffffffffffffffffffffff168373ffffffffffffffffffffffffffffffffffffffff161415610a38576040517f08c379a0000000000000000000000000000000000000000000000000000000008152600401610a2f906133d9565b60405180910390fd5b8073ffffffffffffffffffffffffffffffffffffffff16610a5761189d565b73ffffffffffffffffffffffffffffffffffffffff161480610a865750610a8581610a8061189d565b61162f565b5b610ac5576040517f08c379a0000000000000000000000000000000000000000000000000000000008152600401610abc9061346b565b60405180910390fd5b610acf8383611911565b505050565b600d5481565b6000600880549050905090565b600f5481565b610afe610af861189d565b826119ca565b610b3d576040517f08c379a0000000000000000000000000000000000000000000000000000000008152600401610b34906134fd565b60405180910390fd5b610b48838383611aa8565b505050565b6000610b5883611161565b8210610b99576040517f08c379a0000000000000000000000000000000000000000000000000000000008152600401610b909061358f565b60405180910390fd5b600660008473ffffffffffffffffffffffffffffffffffffffff1673ffffffffffffffffffffffffffffffffffffffff168152602001908152602001600020600083815260200190815260200160002054905092915050565b610bfa61189d565b73ffffffffffffffffffffffffffffffffffffffff16610c18611327565b73ffffffffffffffffffffffffffffffffffffffff1614610c6e576040517f08c379a0000000000000000000000000000000000000000000000000000000008152600401610c6590613254565b60405180910390fd5b3373ffffffffffffffffffffffffffffffffffffffff166108fc479081150290604051600060405180830381858888f19350505050610cac57600080fd5b565b6000610cb8610ada565b9050601060009054906101000a900460ff1615610cd457600080fd5b60008211610ce157600080fd5b600f54821115610cf057600080fd5b600e548282610cff91906135de565b1115610d0a57600080fd5b610d12611327565b73ffffffffffffffffffffffffffffffffffffffff163373ffffffffffffffffffffffffffffffffffffffff1614610d945781600d54610d529190613634565b3414610d93576040517f08c379a0000000000000000000000000000000000000000000000000000000008152600401610d8a906136da565b60405180910390fd5b5b601060019054906101000a900473ffffffffffffffffffffffffffffffffffffffff1673ffffffffffffffffffffffffffffffffffffffff166108fc349081150290604051600060405180830381858888f19350505050158015610dfc573d6000803e3d6000fd5b506000600190505b828111610e3357610e20848284610e1b91906135de565b611d0f565b8080610e2b906136fa565b915050610e04565b50505050565b610e54838383604051806020016040528060008152506113f9565b505050565b60606000610e6683611161565b905060008167ffffffffffffffff811115610e8457610e83612ef0565b5b604051908082528060200260200182016040528015610eb25781602001602082028036833780820191505090505b50905060005b82811015610efc57610eca8582610b4d565b828281518110610edd57610edc613743565b5b6020026020010181815250508080610ef4906136fa565b915050610eb8565b508092505050919050565b6000610f11610ada565b8210610f52576040517f08c379a0000000000000000000000000000000000000000000000000000000008152600401610f49906137e4565b60405180910390fd5b60088281548110610f6657610f65613743565b5b90600052602060002001549050919050565b610f8061189d565b73ffffffffffffffffffffffffffffffffffffffff16610f9e611327565b73ffffffffffffffffffffffffffffffffffffffff1614610ff4576040517f08c379a0000000000000000000000000000000000000000000000000000000008152600401610feb90613254565b60405180910390fd5b80600b908051906020019061100a9291906129ab565b5050565b601060009054906101000a900460ff1681565b6000806002600084815260200190815260200160002060009054906101000a900473ffffffffffffffffffffffffffffffffffffffff169050600073ffffffffffffffffffffffffffffffffffffffff168173ffffffffffffffffffffffffffffffffffffffff1614156110ca576040517f08c379a00000000000000000000000000000000000000000000000000000000081526004016110c190613876565b60405180910390fd5b80915050919050565b600b80546110e0906132a3565b80601f016020809104026020016040519081016040528092919081815260200182805461110c906132a3565b80156111595780601f1061112e57610100808354040283529160200191611159565b820191906000526020600020905b81548152906001019060200180831161113c57829003601f168201915b505050505081565b60008073ffffffffffffffffffffffffffffffffffffffff168273ffffffffffffffffffffffffffffffffffffffff1614156111d2576040517f08c379a00000000000000000000000000000000000000000000000000000000081526004016111c990613908565b60405180910390fd5b600360008373ffffffffffffffffffffffffffffffffffffffff1673ffffffffffffffffffffffffffffffffffffffff168152602001908152602001600020549050919050565b61122161189d565b73ffffffffffffffffffffffffffffffffffffffff1661123f611327565b73ffffffffffffffffffffffffffffffffffffffff1614611295576040517f08c379a000000000000000000000000000000000000000000000000000000000815260040161128c90613254565b60405180910390fd5b61129f6000611d2d565b565b6112a961189d565b73ffffffffffffffffffffffffffffffffffffffff166112c7611327565b73ffffffffffffffffffffffffffffffffffffffff161461131d576040517f08c379a000000000000000000000000000000000000000000000000000000000815260040161131490613254565b60405180910390fd5b80600f8190555050565b6000600a60009054906101000a900473ffffffffffffffffffffffffffffffffffffffff16905090565b606060018054611360906132a3565b80601f016020809104026020016040519081016040528092919081815260200182805461138c906132a3565b80156113d95780601f106113ae576101008083540402835291602001916113d9565b820191906000526020600020905b8154815290600101906020018083116113bc57829003601f168201915b5050505050905090565b6113f56113ee61189d565b8383611df3565b5050565b61140a61140461189d565b836119ca565b611449576040517f08c379a0000000000000000000000000000000000000000000000000000000008152600401611440906134fd565b60405180910390fd5b61145584848484611f60565b50505050565b600c8054611468906132a3565b80601f0160208091040260200160405190810160405280929190818152602001828054611494906132a3565b80156114e15780601f106114b6576101008083540402835291602001916114e1565b820191906000526020600020905b8154815290600101906020018083116114c457829003601f168201915b505050505081565b60606114f4826118a5565b611533576040517f08c379a000000000000000000000000000000000000000000000000000000000815260040161152a9061399a565b60405180910390fd5b600061153d611fbc565b9050600081511161155d576040518060200160405280600081525061158b565b8061156784611fdc565b600c60405160200161157b93929190613a8a565b6040516020818303038152906040525b915050919050565b600e5481565b6115a161189d565b73ffffffffffffffffffffffffffffffffffffffff166115bf611327565b73ffffffffffffffffffffffffffffffffffffffff1614611615576040517f08c379a000000000000000000000000000000000000000000000000000000000815260040161160c90613254565b60405180910390fd5b80600c908051906020019061162b9291906129ab565b5050565b6000600560008473ffffffffffffffffffffffffffffffffffffffff1673ffffffffffffffffffffffffffffffffffffffff16815260200190815260200160002060008373ffffffffffffffffffffffffffffffffffffffff1673ffffffffffffffffffffffffffffffffffffffff16815260200190815260200160002060009054906101000a900460ff16905092915050565b6116cb61189d565b73ffffffffffffffffffffffffffffffffffffffff166116e9611327565b73ffffffffffffffffffffffffffffffffffffffff161461173f576040517f08c379a000000000000000000000000000000000000000000000000000000000815260040161173690613254565b60405180910390fd5b600073ffffffffffffffffffffffffffffffffffffffff168173ffffffffffffffffffffffffffffffffffffffff1614156117af576040517f08c379a00000000000000000000000000000000000000000000000000000000081526004016117a690613b2d565b60405180910390fd5b6117b881611d2d565b50565b60007f80ac58cd000000000000000000000000000000000000000000000000000000007bffffffffffffffffffffffffffffffffffffffffffffffffffffffff1916827bffffffffffffffffffffffffffffffffffffffffffffffffffffffff1916148061188657507f5b5e139f000000000000000000000000000000000000000000000000000000007bffffffffffffffffffffffffffffffffffffffffffffffffffffffff1916827bffffffffffffffffffffffffffffffffffffffffffffffffffffffff1916145b8061189657506118958261213d565b5b9050919050565b600033905090565b60008073ffffffffffffffffffffffffffffffffffffffff166002600084815260200190815260200160002060009054906101000a900473ffffffffffffffffffffffffffffffffffffffff1673ffffffffffffffffffffffffffffffffffffffff1614159050919050565b816004600083815260200190815260200160002060006101000a81548173ffffffffffffffffffffffffffffffffffffffff021916908373ffffffffffffffffffffffffffffffffffffffff160217905550808273ffffffffffffffffffffffffffffffffffffffff1661198483611021565b73ffffffffffffffffffffffffffffffffffffffff167f8c5be1e5ebec7d5bd14f71427d1e84f3dd0314c0f7b2291e5b200ac8c7c3b92560405160405180910390a45050565b60006119d5826118a5565b611a14576040517f08c379a0000000000000000000000000000000000000000000000000000000008152600401611a0b90613bbf565b60405180910390fd5b6000611a1f83611021565b90508073ffffffffffffffffffffffffffffffffffffffff168473ffffffffffffffffffffffffffffffffffffffff161480611a615750611a60818561162f565b5b80611a9f57508373ffffffffffffffffffffffffffffffffffffffff16611a8784610937565b73ffffffffffffffffffffffffffffffffffffffff16145b91505092915050565b8273ffffffffffffffffffffffffffffffffffffffff16611ac882611021565b73ffffffffffffffffffffffffffffffffffffffff1614611b1e576040517f08c379a0000000000000000000000000000000000000000000000000000000008152600401611b1590613c51565b60405180910390fd5b600073ffffffffffffffffffffffffffffffffffffffff168273ffffffffffffffffffffffffffffffffffffffff161415611b8e576040517f08c379a0000000000000000000000000000000000000000000000000000000008152600401611b8590613ce3565b60405180910390fd5b611b998383836121a7565b611ba4600082611911565b6001600360008573ffffffffffffffffffffffffffffffffffffffff1673ffffffffffffffffffffffffffffffffffffffff1681526020019081526020016000206000828254611bf49190613d03565b925050819055506001600360008473ffffffffffffffffffffffffffffffffffffffff1673ffffffffffffffffffffffffffffffffffffffff1681526020019081526020016000206000828254611c4b91906135de565b92505081905550816002600083815260200190815260200160002060006101000a81548173ffffffffffffffffffffffffffffffffffffffff021916908373ffffffffffffffffffffffffffffffffffffffff160217905550808273ffffffffffffffffffffffffffffffffffffffff168473ffffffffffffffffffffffffffffffffffffffff167fddf252ad1be2c89b69c2b068fc378daa952ba7f163c4a11628f55a4df523b3ef60405160405180910390a4611d0a8383836122bb565b505050565b611d298282604051806020016040528060008152506122c0565b5050565b6000600a60009054906101000a900473ffffffffffffffffffffffffffffffffffffffff16905081600a60006101000a81548173ffffffffffffffffffffffffffffffffffffffff021916908373ffffffffffffffffffffffffffffffffffffffff1602179055508173ffffffffffffffffffffffffffffffffffffffff168173ffffffffffffffffffffffffffffffffffffffff167f8be0079c531659141344cd1fd0a4f28419497f9722a3daafe3b4186f6b6457e060405160405180910390a35050565b8173ffffffffffffffffffffffffffffffffffffffff168373ffffffffffffffffffffffffffffffffffffffff161415611e62576040517f08c379a0000000000000000000000000000000000000000000000000000000008152600401611e5990613d83565b60405180910390fd5b80600560008573ffffffffffffffffffffffffffffffffffffffff1673ffffffffffffffffffffffffffffffffffffffff16815260200190815260200160002060008473ffffffffffffffffffffffffffffffffffffffff1673ffffffffffffffffffffffffffffffffffffffff16815260200190815260200160002060006101000a81548160ff0219169083151502179055508173ffffffffffffffffffffffffffffffffffffffff168373ffffffffffffffffffffffffffffffffffffffff167f17307eab39ab6107e8899845ad3d59bd9653f200f220920489ca2b5937696c3183604051611f539190612b02565b60405180910390a3505050565b611f6b848484611aa8565b611f778484848461231b565b611fb6576040517f08c379a0000000000000000000000000000000000000000000000000000000008152600401611fad90613e15565b60405180910390fd5b50505050565b60606040518060800160405280605281526020016140b160529139905090565b60606000821415612024576040518060400160405280600181526020017f30000000000000000000000000000000000000000000000000000000000000008152509050612138565b600082905060005b6000821461205657808061203f906136fa565b915050600a8261204f9190613e64565b915061202c565b60008167ffffffffffffffff81111561207257612071612ef0565b5b6040519080825280601f01601f1916602001820160405280156120a45781602001600182028036833780820191505090505b5090505b60008514612131576001826120bd9190613d03565b9150600a856120cc9190613e95565b60306120d891906135de565b60f81b8183815181106120ee576120ed613743565b5b60200101907effffffffffffffffffffffffffffffffffffffffffffffffffffffffffffff1916908160001a905350600a8561212a9190613e64565b94506120a8565b8093505050505b919050565b60007f01ffc9a7000000000000000000000000000000000000000000000000000000007bffffffffffffffffffffffffffffffffffffffffffffffffffffffff1916827bffffffffffffffffffffffffffffffffffffffffffffffffffffffff1916149050919050565b6121b28383836124a3565b600073ffffffffffffffffffffffffffffffffffffffff168373ffffffffffffffffffffffffffffffffffffffff1614156121f5576121f0816124a8565b612234565b8173ffffffffffffffffffffffffffffffffffffffff168373ffffffffffffffffffffffffffffffffffffffff16146122335761223283826124f1565b5b5b600073ffffffffffffffffffffffffffffffffffffffff168273ffffffffffffffffffffffffffffffffffffffff161415612277576122728161265e565b6122b6565b8273ffffffffffffffffffffffffffffffffffffffff168273ffffffffffffffffffffffffffffffffffffffff16146122b5576122b4828261272f565b5b5b505050565b505050565b6122ca83836127ae565b6122d7600084848461231b565b612316576040517f08c379a000000000000000000000000000000000000000000000000000000000815260040161230d90613e15565b60405180910390fd5b505050565b600061233c8473ffffffffffffffffffffffffffffffffffffffff16612988565b15612496578373ffffffffffffffffffffffffffffffffffffffff1663150b7a0261236561189d565b8786866040518563ffffffff1660e01b81526004016123879493929190613f1b565b6020604051808303816000875af19250505080156123c357506040513d601f19601f820116820180604052508101906123c09190613f7c565b60015b612446573d80600081146123f3576040519150601f19603f3d011682016040523d82523d6000602084013e6123f8565b606091505b5060008151141561243e576040517f08c379a000000000000000000000000000000000000000000000000000000000815260040161243590613e15565b60405180910390fd5b805181602001fd5b63150b7a0260e01b7bffffffffffffffffffffffffffffffffffffffffffffffffffffffff1916817bffffffffffffffffffffffffffffffffffffffffffffffffffffffff19161491505061249b565b600190505b949350505050565b505050565b6008805490506009600083815260200190815260200160002081905550600881908060018154018082558091505060019003906000526020600020016000909190919091505550565b600060016124fe84611161565b6125089190613d03565b90506000600760008481526020019081526020016000205490508181146125ed576000600660008673ffffffffffffffffffffffffffffffffffffffff1673ffffffffffffffffffffffffffffffffffffffff168152602001908152602001600020600084815260200190815260200160002054905080600660008773ffffffffffffffffffffffffffffffffffffffff1673ffffffffffffffffffffffffffffffffffffffff168152602001908152602001600020600084815260200190815260200160002081905550816007600083815260200190815260200160002081905550505b6007600084815260200190815260200160002060009055600660008573ffffffffffffffffffffffffffffffffffffffff1673ffffffffffffffffffffffffffffffffffffffff16815260200190815260200160002060008381526020019081526020016000206000905550505050565b600060016008805490506126729190613d03565b90506000600960008481526020019081526020016000205490506000600883815481106126a2576126a1613743565b5b9060005260206000200154905080600883815481106126c4576126c3613743565b5b90600052602060002001819055508160096000838152602001908152602001600020819055506009600085815260200190815260200160002060009055600880548061271357612712613fa9565b5b6001900381819060005260206000200160009055905550505050565b600061273a83611161565b905081600660008573ffffffffffffffffffffffffffffffffffffffff1673ffffffffffffffffffffffffffffffffffffffff168152602001908152602001600020600083815260200190815260200160002081905550806007600084815260200190815260200160002081905550505050565b600073ffffffffffffffffffffffffffffffffffffffff168273ffffffffffffffffffffffffffffffffffffffff16141561281e576040517f08c379a000000000000000000000000000000000000000000000000000000000815260040161281590614024565b60405180910390fd5b612827816118a5565b15612867576040517f08c379a000000000000000000000000000000000000000000000000000000000815260040161285e90614090565b60405180910390fd5b612873600083836121a7565b6001600360008473ffffffffffffffffffffffffffffffffffffffff1673ffffffffffffffffffffffffffffffffffffffff16815260200190815260200160002060008282546128c391906135de565b92505081905550816002600083815260200190815260200160002060006101000a81548173ffffffffffffffffffffffffffffffffffffffff021916908373ffffffffffffffffffffffffffffffffffffffff160217905550808273ffffffffffffffffffffffffffffffffffffffff16600073ffffffffffffffffffffffffffffffffffffffff167fddf252ad1be2c89b69c2b068fc378daa952ba7f163c4a11628f55a4df523b3ef60405160405180910390a4612984600083836122bb565b5050565b6000808273ffffffffffffffffffffffffffffffffffffffff163b119050919050565b8280546129b7906132a3565b90600052602060002090601f0160209004810192826129d95760008555612a20565b82601f106129f257805160ff1916838001178555612a20565b82800160010185558215612a20579182015b82811115612a1f578251825591602001919060010190612a04565b5b509050612a2d9190612a31565b5090565b5b80821115612a4a576000816000905550600101612a32565b5090565b6000604051905090565b600080fd5b600080fd5b60007fffffffff0000000000000000000000000000000000000000000000000000000082169050919050565b612a9781612a62565b8114612aa257600080fd5b50565b600081359050612ab481612a8e565b92915050565b600060208284031215612ad057612acf612a58565b5b6000612ade84828501612aa5565b91505092915050565b60008115159050919050565b612afc81612ae7565b82525050565b6000602082019050612b176000830184612af3565b92915050565b612b2681612ae7565b8114612b3157600080fd5b50565b600081359050612b4381612b1d565b92915050565b600060208284031215612b5f57612b5e612a58565b5b6000612b6d84828501612b34565b91505092915050565b600081519050919050565b600082825260208201905092915050565b60005b83811015612bb0578082015181840152602081019050612b95565b83811115612bbf576000848401525b50505050565b6000601f19601f8301169050919050565b6000612be182612b76565b612beb8185612b81565b9350612bfb818560208601612b92565b612c0481612bc5565b840191505092915050565b60006020820190508181036000830152612c298184612bd6565b905092915050565b6000819050919050565b612c4481612c31565b8114612c4f57600080fd5b50565b600081359050612c6181612c3b565b92915050565b600060208284031215612c7d57612c7c612a58565b5b6000612c8b84828501612c52565b91505092915050565b600073ffffffffffffffffffffffffffffffffffffffff82169050919050565b6000612cbf82612c94565b9050919050565b612ccf81612cb4565b82525050565b6000602082019050612cea6000830184612cc6565b92915050565b612cf981612cb4565b8114612d0457600080fd5b50565b600081359050612d1681612cf0565b92915050565b60008060408385031215612d3357612d32612a58565b5b6000612d4185828601612d07565b9250506020612d5285828601612c52565b9150509250929050565b612d6581612c31565b82525050565b6000602082019050612d806000830184612d5c565b92915050565b600080600060608486031215612d9f57612d9e612a58565b5b6000612dad86828701612d07565b9350506020612dbe86828701612d07565b9250506040612dcf86828701612c52565b9150509250925092565b600060208284031215612def57612dee612a58565b5b6000612dfd84828501612d07565b91505092915050565b600081519050919050565b600082825260208201905092915050565b6000819050602082019050919050565b612e3b81612c31565b82525050565b6000612e4d8383612e32565b60208301905092915050565b6000602082019050919050565b6000612e7182612e06565b612e7b8185612e11565b9350612e8683612e22565b8060005b83811015612eb7578151612e9e8882612e41565b9750612ea983612e59565b925050600181019050612e8a565b5085935050505092915050565b60006020820190508181036000830152612ede8184612e66565b905092915050565b600080fd5b600080fd5b7f4e487b7100000000000000000000000000000000000000000000000000000000600052604160045260246000fd5b612f2882612bc5565b810181811067ffffffffffffffff82111715612f4757612f46612ef0565b5b80604052505050565b6000612f5a612a4e565b9050612f668282612f1f565b919050565b600067ffffffffffffffff821115612f8657612f85612ef0565b5b612f8f82612bc5565b9050602081019050919050565b82818337600083830152505050565b6000612fbe612fb984612f6b565b612f50565b905082815260208101848484011115612fda57612fd9612eeb565b5b612fe5848285612f9c565b509392505050565b600082601f83011261300257613001612ee6565b5b8135613012848260208601612fab565b91505092915050565b60006020828403121561303157613030612a58565b5b600082013567ffffffffffffffff81111561304f5761304e612a5d565b5b61305b84828501612fed565b91505092915050565b6000806040838503121561307b5761307a612a58565b5b600061308985828601612d07565b925050602061309a85828601612b34565b9150509250929050565b600067ffffffffffffffff8211156130bf576130be612ef0565b5b6130c882612bc5565b9050602081019050919050565b60006130e86130e3846130a4565b612f50565b90508281526020810184848401111561310457613103612eeb565b5b61310f848285612f9c565b509392505050565b600082601f83011261312c5761312b612ee6565b5b813561313c8482602086016130d5565b91505092915050565b6000806000806080858703121561315f5761315e612a58565b5b600061316d87828801612d07565b945050602061317e87828801612d07565b935050604061318f87828801612c52565b925050606085013567ffffffffffffffff8111156131b0576131af612a5d565b5b6131bc87828801613117565b91505092959194509250565b600080604083850312156131df576131de612a58565b5b60006131ed85828601612d07565b92505060206131fe85828601612d07565b9150509250929050565b7f4f776e61626c653a2063616c6c6572206973206e6f7420746865206f776e6572600082015250565b600061323e602083612b81565b915061324982613208565b602082019050919050565b6000602082019050818103600083015261326d81613231565b9050919050565b7f4e487b7100000000000000000000000000000000000000000000000000000000600052602260045260246000fd5b600060028204905060018216806132bb57607f821691505b602082108114156132cf576132ce613274565b5b50919050565b7f4552433732313a20617070726f76656420717565727920666f72206e6f6e657860008201527f697374656e7420746f6b656e0000000000000000000000000000000000000000602082015250565b6000613331602c83612b81565b915061333c826132d5565b604082019050919050565b6000602082019050818103600083015261336081613324565b9050919050565b7f4552433732313a20617070726f76616c20746f2063757272656e74206f776e6560008201527f7200000000000000000000000000000000000000000000000000000000000000602082015250565b60006133c3602183612b81565b91506133ce82613367565b604082019050919050565b600060208201905081810360008301526133f2816133b6565b9050919050565b7f4552433732313a20617070726f76652063616c6c6572206973206e6f74206f7760008201527f6e6572206e6f7220617070726f76656420666f7220616c6c0000000000000000602082015250565b6000613455603883612b81565b9150613460826133f9565b604082019050919050565b6000602082019050818103600083015261348481613448565b9050919050565b7f4552433732313a207472616e736665722063616c6c6572206973206e6f74206f60008201527f776e6572206e6f7220617070726f766564000000000000000000000000000000602082015250565b60006134e7603183612b81565b91506134f28261348b565b604082019050919050565b60006020820190508181036000830152613516816134da565b9050919050565b7f455243373231456e756d657261626c653a206f776e657220696e646578206f7560008201527f74206f6620626f756e6473000000000000000000000000000000000000000000602082015250565b6000613579602b83612b81565b91506135848261351d565b604082019050919050565b600060208201905081810360008301526135a88161356c565b9050919050565b7f4e487b7100000000000000000000000000000000000000000000000000000000600052601160045260246000fd5b60006135e982612c31565b91506135f483612c31565b9250827fffffffffffffffffffffffffffffffffffffffffffffffffffffffffffffffff03821115613629576136286135af565b5b828201905092915050565b600061363f82612c31565b915061364a83612c31565b9250817fffffffffffffffffffffffffffffffffffffffffffffffffffffffffffffffff0483118215151615613683576136826135af565b5b828202905092915050565b7f496e73756666696369656e742065746865722100000000000000000000000000600082015250565b60006136c4601383612b81565b91506136cf8261368e565b602082019050919050565b600060208201905081810360008301526136f3816136b7565b9050919050565b600061370582612c31565b91507fffffffffffffffffffffffffffffffffffffffffffffffffffffffffffffffff821415613738576137376135af565b5b600182019050919050565b7f4e487b7100000000000000000000000000000000000000000000000000000000600052603260045260246000fd5b7f455243373231456e756d657261626c653a20676c6f62616c20696e646578206f60008201527f7574206f6620626f756e64730000000000000000000000000000000000000000602082015250565b60006137ce602c83612b81565b91506137d982613772565b604082019050919050565b600060208201905081810360008301526137fd816137c1565b9050919050565b7f4552433732313a206f776e657220717565727920666f72206e6f6e657869737460008201527f656e7420746f6b656e0000000000000000000000000000000000000000000000602082015250565b6000613860602983612b81565b915061386b82613804565b604082019050919050565b6000602082019050818103600083015261388f81613853565b9050919050565b7f4552433732313a2062616c616e636520717565727920666f7220746865207a6560008201527f726f206164647265737300000000000000000000000000000000000000000000602082015250565b60006138f2602a83612b81565b91506138fd82613896565b604082019050919050565b60006020820190508181036000830152613921816138e5565b9050919050565b7f4552433732314d657461646174613a2055524920717565727920666f72206e6f60008201527f6e6578697374656e7420746f6b656e0000000000000000000000000000000000602082015250565b6000613984602f83612b81565b915061398f82613928565b604082019050919050565b600060208201905081810360008301526139b381613977565b9050919050565b600081905092915050565b60006139d082612b76565b6139da81856139ba565b93506139ea818560208601612b92565b80840191505092915050565b60008190508160005260206000209050919050565b60008154613a18816132a3565b613a2281866139ba565b94506001821660008114613a3d5760018114613a4e57613a81565b60ff19831686528186019350613a81565b613a57856139f6565b60005b83811015613a7957815481890152600182019150602081019050613a5a565b838801955050505b50505092915050565b6000613a9682866139c5565b9150613aa282856139c5565b9150613aae8284613a0b565b9150819050949350505050565b7f4f776e61626c653a206e6577206f776e657220697320746865207a65726f206160008201527f6464726573730000000000000000000000000000000000000000000000000000602082015250565b6000613b17602683612b81565b9150613b2282613abb565b604082019050919050565b60006020820190508181036000830152613b4681613b0a565b9050919050565b7f4552433732313a206f70657261746f7220717565727920666f72206e6f6e657860008201527f697374656e7420746f6b656e0000000000000000000000000000000000000000602082015250565b6000613ba9602c83612b81565b9150613bb482613b4d565b604082019050919050565b60006020820190508181036000830152613bd881613b9c565b9050919050565b7f4552433732313a207472616e736665722066726f6d20696e636f72726563742060008201527f6f776e6572000000000000000000000000000000000000000000000000000000602082015250565b6000613c3b602583612b81565b9150613c4682613bdf565b604082019050919050565b60006020820190508181036000830152613c6a81613c2e565b9050919050565b7f4552433732313a207472616e7366657220746f20746865207a65726f2061646460008201527f7265737300000000000000000000000000000000000000000000000000000000602082015250565b6000613ccd602483612b81565b9150613cd882613c71565b604082019050919050565b60006020820190508181036000830152613cfc81613cc0565b9050919050565b6000613d0e82612c31565b9150613d1983612c31565b925082821015613d2c57613d2b6135af565b5b828203905092915050565b7f4552433732313a20617070726f766520746f2063616c6c657200000000000000600082015250565b6000613d6d601983612b81565b9150613d7882613d37565b602082019050919050565b60006020820190508181036000830152613d9c81613d60565b9050919050565b7f4552433732313a207472616e7366657220746f206e6f6e20455243373231526560008201527f63656976657220696d706c656d656e7465720000000000000000000000000000602082015250565b6000613dff603283612b81565b9150613e0a82613da3565b604082019050919050565b60006020820190508181036000830152613e2e81613df2565b9050919050565b7f4e487b7100000000000000000000000000000000000000000000000000000000600052601260045260246000fd5b6000613e6f82612c31565b9150613e7a83612c31565b925082613e8a57613e89613e35565b5b828204905092915050565b6000613ea082612c31565b9150613eab83612c31565b925082613ebb57613eba613e35565b5b828206905092915050565b600081519050919050565b600082825260208201905092915050565b6000613eed82613ec6565b613ef78185613ed1565b9350613f07818560208601612b92565b613f1081612bc5565b840191505092915050565b6000608082019050613f306000830187612cc6565b613f3d6020830186612cc6565b613f4a6040830185612d5c565b8181036060830152613f5c8184613ee2565b905095945050505050565b600081519050613f7681612a8e565b92915050565b600060208284031215613f9257613f91612a58565b5b6000613fa084828501613f67565b91505092915050565b7f4e487b7100000000000000000000000000000000000000000000000000000000600052603160045260246000fd5b7f4552433732313a206d696e7420746f20746865207a65726f2061646472657373600082015250565b600061400e602083612b81565b915061401982613fd8565b602082019050919050565b6000602082019050818103600083015261403d81614001565b9050919050565b7f4552433732313a20746f6b656e20616c7265616479206d696e74656400000000600082015250565b600061407a601c83612b81565b915061408582614044565b602082019050919050565b600060208201905081810360008301526140a98161406d565b905091905056fe68747470733a2f2f676174657761792e70696e6174612e636c6f75642f697066732f516d644e515856484a727a667645476a765a6a395934756a6e716e747a59415774613970794b556e79706b5276372f30a26469706673582212201ec36d017e0c03d91063a03142d27a14aa5e094c9e798a74efa809d977e33d5d64736f6c634300080a0033",
  "immutableReferences": {},
  "source": "// SPDX-License-Identifier: MIT LICENSE\r\nimport \"@openzeppelin/contracts/utils/introspection/IERC165.sol\";\r\nimport \"@openzeppelin/contracts/token/ERC721/IERC721.sol\";\r\nimport \"@openzeppelin/contracts/token/ERC721/extensions/IERC721Enumerable.sol\";\r\nimport \"@openzeppelin/contracts/utils/introspection/ERC165.sol\";\r\nimport \"@openzeppelin/contracts/utils/Strings.sol\";\r\nimport \"@openzeppelin/contracts/utils/Address.sol\";\r\nimport \"@openzeppelin/contracts/token/ERC721/extensions/IERC721Metadata.sol\";\r\nimport \"@openzeppelin/contracts/token/ERC721/IERC721Receiver.sol\";\r\nimport \"@openzeppelin/contracts/token/ERC721/extensions/ERC721Enumerable.sol\";\r\nimport \"@openzeppelin/contracts/access/Ownable.sol\";\r\n\r\npragma solidity ^0.8.0;\r\n\r\ncontract ScratchNFT is ERC721Enumerable, Ownable {\r\n    using Strings for uint256;\r\n    string public baseURI;\r\n    string public baseExtension = \".json\";\r\n    uint256 public cost = 0.001 ether;\r\n    uint256 public maxSupply = 1000;\r\n    uint256 public maxMintAmount = 5;\r\n    bool public paused = false;\r\n    address payable _seller;\r\n\r\n    constructor() ERC721(\"Scratch NFT Collection\", \"SNC\") {\r\n        _seller = payable(msg.sender);\r\n    }\r\n        // internal\r\n        function _baseURI() internal view virtual override returns (string memory) {\r\n        return \"https://gateway.pinata.cloud/ipfs/QmdNQXVHJrzfvEGjvZj9Y4ujnqntzYAWta9pyKUnypkRv7/0\";\r\n    }\r\n        // public\r\n\r\n        function mint(address _to, uint256 _mintAmount) public payable {\r\n            uint256 supply = totalSupply();\r\n            require(!paused);\r\n            require(_mintAmount > 0);\r\n            require(_mintAmount <= maxMintAmount);\r\n            require(supply + _mintAmount <= maxSupply);\r\n            \r\n            if (msg.sender != owner()) {\r\n            require(msg.value == cost * _mintAmount, \"Insufficient ether!\");\r\n            }\r\n\r\n            _seller.transfer(msg.value);\r\n            \r\n            for (uint256 i = 1; i <= _mintAmount; i++) {\r\n                _safeMint(_to, supply + i);\r\n            }\r\n        }\r\n\r\n        function walletOfOwner(address _owner)\r\n        public\r\n        view\r\n        returns (uint256[] memory)\r\n        {\r\n            uint256 ownerTokenCount = balanceOf(_owner);\r\n            uint256[] memory tokenIds = new uint256[](ownerTokenCount);\r\n            for (uint256 i; i < ownerTokenCount; i++) {\r\n                tokenIds[i] = tokenOfOwnerByIndex(_owner, i);\r\n            }\r\n            return tokenIds;\r\n        }\r\n    \r\n        \r\n        function tokenURI(uint256 tokenId)\r\n        public\r\n        view\r\n        virtual\r\n        override\r\n        returns (string memory) {\r\n            require(\r\n                _exists(tokenId),\r\n                \"ERC721Metadata: URI query for nonexistent token\"\r\n                );\r\n                \r\n                string memory currentBaseURI = _baseURI();\r\n                return\r\n                bytes(currentBaseURI).length > 0 \r\n                ? string(abi.encodePacked(currentBaseURI, tokenId.toString(), baseExtension))\r\n                : \"\";\r\n        }\r\n        // only owner\r\n        \r\n        function setmaxMintAmount(uint256 _newmaxMintAmount) public onlyOwner() {\r\n            maxMintAmount = _newmaxMintAmount;\r\n        }\r\n        \r\n        function setBaseURI(string memory _newBaseURI) public onlyOwner() {\r\n            baseURI = _newBaseURI;\r\n        }\r\n        \r\n        function setBaseExtension(string memory _newBaseExtension) public onlyOwner() {\r\n            baseExtension = _newBaseExtension;\r\n        }\r\n        \r\n        function pause(bool _state) public onlyOwner() {\r\n            paused = _state;\r\n        }\r\n        \r\n        function withdraw() public payable onlyOwner() {\r\n            require(payable(msg.sender).send(address(this).balance));\r\n        }\r\n}\r\n",
  "sourcePath": "/home/aamer/Ixiono/staking_module/contracts/ScratchNFT.sol",
  "compiler": {
    "name": "solc",
    "version": "0.8.10+commit.fc410830.Emscripten.clang"
  },
  "schemaVersion": "3.4.3",
  "updatedAt": "2022-06-03T12:49:47.473Z",
  "networkType": "ethereum",
  "devdoc": {
    "kind": "dev",
    "methods": {
      "approve(address,uint256)": {
        "details": "See {IERC721-approve}."
      },
      "balanceOf(address)": {
        "details": "See {IERC721-balanceOf}."
      },
      "getApproved(uint256)": {
        "details": "See {IERC721-getApproved}."
      },
      "isApprovedForAll(address,address)": {
        "details": "See {IERC721-isApprovedForAll}."
      },
      "name()": {
        "details": "See {IERC721Metadata-name}."
      },
      "owner()": {
        "details": "Returns the address of the current owner."
      },
      "ownerOf(uint256)": {
        "details": "See {IERC721-ownerOf}."
      },
      "renounceOwnership()": {
        "details": "Leaves the contract without owner. It will not be possible to call `onlyOwner` functions anymore. Can only be called by the current owner. NOTE: Renouncing ownership will leave the contract without an owner, thereby removing any functionality that is only available to the owner."
      },
      "safeTransferFrom(address,address,uint256)": {
        "details": "See {IERC721-safeTransferFrom}."
      },
      "safeTransferFrom(address,address,uint256,bytes)": {
        "details": "See {IERC721-safeTransferFrom}."
      },
      "setApprovalForAll(address,bool)": {
        "details": "See {IERC721-setApprovalForAll}."
      },
      "supportsInterface(bytes4)": {
        "details": "See {IERC165-supportsInterface}."
      },
      "symbol()": {
        "details": "See {IERC721Metadata-symbol}."
      },
      "tokenByIndex(uint256)": {
        "details": "See {IERC721Enumerable-tokenByIndex}."
      },
      "tokenOfOwnerByIndex(address,uint256)": {
        "details": "See {IERC721Enumerable-tokenOfOwnerByIndex}."
      },
      "tokenURI(uint256)": {
        "details": "See {IERC721Metadata-tokenURI}."
      },
      "totalSupply()": {
        "details": "See {IERC721Enumerable-totalSupply}."
      },
      "transferFrom(address,address,uint256)": {
        "details": "See {IERC721-transferFrom}."
      },
      "transferOwnership(address)": {
        "details": "Transfers ownership of the contract to a new account (`newOwner`). Can only be called by the current owner."
      }
    },
    "version": 1
  },
  "userdoc": {
    "kind": "user",
    "methods": {},
    "version": 1
  }
}