{
  "contractName": "StakingVault",
  "abi": [
    {
      "inputs": [
        {
          "internalType": "contract ScratchNFT",
          "name": "_nft",
          "type": "address"
        },
        {
          "internalType": "contract ScratchReward",
          "name": "_token",
          "type": "address"
        }
      ],
      "stateMutability": "nonpayable",
      "type": "constructor"
    },
    {
      "anonymous": false,
      "inputs": [
        {
          "indexed": false,
          "internalType": "address",
          "name": "owner",
          "type": "address"
        },
        {
          "indexed": false,
          "internalType": "uint256",
          "name": "amount",
          "type": "uint256"
        }
      ],
      "name": "Claimed",
      "type": "event"
    },
    {
      "anonymous": false,
      "inputs": [
        {
          "indexed": false,
          "internalType": "address",
          "name": "owner",
          "type": "address"
        },
        {
          "indexed": false,
          "internalType": "uint256",
          "name": "tokenId",
          "type": "uint256"
        },
        {
          "indexed": false,
          "internalType": "uint256",
          "name": "value",
          "type": "uint256"
        }
      ],
      "name": "NFTStaked",
      "type": "event"
    },
    {
      "anonymous": false,
      "inputs": [
        {
          "indexed": false,
          "internalType": "address",
          "name": "owner",
          "type": "address"
        },
        {
          "indexed": false,
          "internalType": "uint256",
          "name": "tokenId",
          "type": "uint256"
        },
        {
          "indexed": false,
          "internalType": "uint256",
          "name": "value",
          "type": "uint256"
        }
      ],
      "name": "NFTUnstaked",
      "type": "event"
    },
    {
      "anonymous": false,
      "inputs": [
        {
          "indexed": true,
          "internalType": "address",
          "name": "previousOwner",
          "type": "address"
        },
        {
          "indexed": true,
          "internalType": "address",
          "name": "newOwner",
          "type": "address"
        }
      ],
      "name": "OwnershipTransferred",
      "type": "event"
    },
    {
      "inputs": [],
      "name": "owner",
      "outputs": [
        {
          "internalType": "address",
          "name": "",
          "type": "address"
        }
      ],
      "stateMutability": "view",
      "type": "function"
    },
    {
      "inputs": [],
      "name": "renounceOwnership",
      "outputs": [],
      "stateMutability": "nonpayable",
      "type": "function"
    },
    {
      "inputs": [],
      "name": "totalStaked",
      "outputs": [
        {
          "internalType": "uint256",
          "name": "",
          "type": "uint256"
        }
      ],
      "stateMutability": "view",
      "type": "function"
    },
    {
      "inputs": [
        {
          "internalType": "address",
          "name": "newOwner",
          "type": "address"
        }
      ],
      "name": "transferOwnership",
      "outputs": [],
      "stateMutability": "nonpayable",
      "type": "function"
    },
    {
      "inputs": [
        {
          "internalType": "uint256",
          "name": "",
          "type": "uint256"
        }
      ],
      "name": "vault",
      "outputs": [
        {
          "internalType": "uint24",
          "name": "tokenId",
          "type": "uint24"
        },
        {
          "internalType": "uint48",
          "name": "timestamp",
          "type": "uint48"
        },
        {
          "internalType": "address",
          "name": "owner",
          "type": "address"
        }
      ],
      "stateMutability": "view",
      "type": "function"
    },
    {
      "inputs": [
        {
          "internalType": "uint256[]",
          "name": "tokenIds",
          "type": "uint256[]"
        }
      ],
      "name": "stake",
      "outputs": [],
      "stateMutability": "nonpayable",
      "type": "function"
    },
    {
      "inputs": [
        {
          "internalType": "uint256[]",
          "name": "tokenIds",
          "type": "uint256[]"
        }
      ],
      "name": "claim",
      "outputs": [],
      "stateMutability": "nonpayable",
      "type": "function"
    },
    {
      "inputs": [
        {
          "internalType": "address",
          "name": "account",
          "type": "address"
        },
        {
          "internalType": "uint256[]",
          "name": "tokenIds",
          "type": "uint256[]"
        }
      ],
      "name": "claimForAddress",
      "outputs": [],
      "stateMutability": "nonpayable",
      "type": "function"
    },
    {
      "inputs": [
        {
          "internalType": "uint256[]",
          "name": "tokenIds",
          "type": "uint256[]"
        }
      ],
      "name": "unstake",
      "outputs": [],
      "stateMutability": "nonpayable",
      "type": "function"
    },
    {
      "inputs": [
        {
          "internalType": "uint256[]",
          "name": "tokenIds",
          "type": "uint256[]"
        }
      ],
      "name": "earningInfo",
      "outputs": [
        {
          "internalType": "uint256[2]",
          "name": "info",
          "type": "uint256[2]"
        }
      ],
      "stateMutability": "view",
      "type": "function"
    },
    {
      "inputs": [
        {
          "internalType": "address",
          "name": "account",
          "type": "address"
        }
      ],
      "name": "balanceOf",
      "outputs": [
        {
          "internalType": "uint256",
          "name": "",
          "type": "uint256"
        }
      ],
      "stateMutability": "view",
      "type": "function"
    },
    {
      "inputs": [
        {
          "internalType": "address",
          "name": "account",
          "type": "address"
        }
      ],
      "name": "tokensOfOwner",
      "outputs": [
        {
          "internalType": "uint256[]",
          "name": "ownerTokens",
          "type": "uint256[]"
        }
      ],
      "stateMutability": "view",
      "type": "function"
    },
    {
      "inputs": [
        {
          "internalType": "address",
          "name": "",
          "type": "address"
        },
        {
          "internalType": "address",
          "name": "from",
          "type": "address"
        },
        {
          "internalType": "uint256",
          "name": "",
          "type": "uint256"
        },
        {
          "internalType": "bytes",
          "name": "",
          "type": "bytes"
        }
      ],
      "name": "onERC721Received",
      "outputs": [
        {
          "internalType": "bytes4",
          "name": "",
          "type": "bytes4"
        }
      ],
      "stateMutability": "pure",
      "type": "function"
    }
  ],
  "bytecode": "0x60806040523480156200001157600080fd5b506040516200244738038062002447833981810160405281019062000037919062000270565b620000576200004b620000e160201b60201c565b620000e960201b60201c565b81600260006101000a81548173ffffffffffffffffffffffffffffffffffffffff021916908373ffffffffffffffffffffffffffffffffffffffff16021790555080600360006101000a81548173ffffffffffffffffffffffffffffffffffffffff021916908373ffffffffffffffffffffffffffffffffffffffff1602179055505050620002b7565b600033905090565b60008060009054906101000a900473ffffffffffffffffffffffffffffffffffffffff169050816000806101000a81548173ffffffffffffffffffffffffffffffffffffffff021916908373ffffffffffffffffffffffffffffffffffffffff1602179055508173ffffffffffffffffffffffffffffffffffffffff168173ffffffffffffffffffffffffffffffffffffffff167f8be0079c531659141344cd1fd0a4f28419497f9722a3daafe3b4186f6b6457e060405160405180910390a35050565b600080fd5b600073ffffffffffffffffffffffffffffffffffffffff82169050919050565b6000620001df82620001b2565b9050919050565b6000620001f382620001d2565b9050919050565b6200020581620001e6565b81146200021157600080fd5b50565b6000815190506200022581620001fa565b92915050565b60006200023882620001d2565b9050919050565b6200024a816200022b565b81146200025657600080fd5b50565b6000815190506200026a816200023f565b92915050565b600080604083850312156200028a5762000289620001ad565b5b60006200029a8582860162000214565b9250506020620002ad8582860162000259565b9150509250929050565b61218080620002c76000396000f3fe608060405234801561001057600080fd5b50600436106100cf5760003560e01c8063817b1cd21161008c5780638da5cb5b116100665780638da5cb5b14610226578063c36be35714610244578063e449f34114610260578063f2fde38b1461027c576100cf565b8063817b1cd2146101a657806381a36fb6146101c45780638462151c146101f6576100cf565b80630fbf0a93146100d4578063150b7a02146100f05780633562b086146101205780636ba4c1381461015057806370a082311461016c578063715018a61461019c575b600080fd5b6100ee60048036038101906100e99190611618565b610298565b005b61010a6004803603810190610105919061174f565b610626565b6040516101179190611812565b60405180910390f35b61013a60048036038101906101359190611618565b6106a9565b60405161014791906118d8565b60405180910390f35b61016a60048036038101906101659190611618565b610827565b005b610186600480360381019061018191906118f3565b610838565b604051610193919061192f565b60405180910390f35b6101a461097a565b005b6101ae610a02565b6040516101bb919061192f565b60405180910390f35b6101de60048036038101906101d9919061194a565b610a08565b6040516101ed939291906119c5565b60405180910390f35b610210600480360381019061020b91906118f3565b610a73565b60405161021d9190611a93565b60405180910390f35b61022e610cf0565b60405161023b9190611ab5565b60405180910390f35b61025e60048036038101906102599190611ad0565b610d19565b005b61027a60048036038101906102759190611618565b610d2b565b005b610296600480360381019061029191906118f3565b610d3c565b005b600082829050600160008282546102af9190611b5f565b9250508190555060005b83839050811015610620578383828181106102d7576102d6611bb5565b5b9050602002013591503373ffffffffffffffffffffffffffffffffffffffff16600260009054906101000a900473ffffffffffffffffffffffffffffffffffffffff1673ffffffffffffffffffffffffffffffffffffffff16636352211e846040518263ffffffff1660e01b8152600401610352919061192f565b602060405180830381865afa15801561036f573d6000803e3d6000fd5b505050506040513d601f19601f820116820180604052508101906103939190611bf9565b73ffffffffffffffffffffffffffffffffffffffff16146103e9576040517f08c379a00000000000000000000000000000000000000000000000000000000081526004016103e090611c83565b60405180910390fd5b60006004600084815260200190815260200160002060000160009054906101000a900462ffffff1662ffffff1614610456576040517f08c379a000000000000000000000000000000000000000000000000000000000815260040161044d90611cef565b60405180910390fd5b600260009054906101000a900473ffffffffffffffffffffffffffffffffffffffff1673ffffffffffffffffffffffffffffffffffffffff166323b872dd3330856040518463ffffffff1660e01b81526004016104b593929190611d0f565b600060405180830381600087803b1580156104cf57600080fd5b505af11580156104e3573d6000803e3d6000fd5b505050507f36b3725f1783bad4ff05b7f4c077c3aa68eeb23a4d054ba189db4d01ac278d3933834260405161051a93929190611d46565b60405180910390a160405180606001604052808362ffffff1681526020014265ffffffffffff1681526020013373ffffffffffffffffffffffffffffffffffffffff168152506004600084815260200190815260200160002060008201518160000160006101000a81548162ffffff021916908362ffffff16021790555060208201518160000160036101000a81548165ffffffffffff021916908365ffffffffffff16021790555060408201518160000160096101000a81548173ffffffffffffffffffffffffffffffffffffffff021916908373ffffffffffffffffffffffffffffffffffffffff160217905550905050808061061890611d7d565b9150506102b9565b50505050565b60008073ffffffffffffffffffffffffffffffffffffffff168573ffffffffffffffffffffffffffffffffffffffff1614610696576040517f08c379a000000000000000000000000000000000000000000000000000000000815260040161068d90611e38565b60405180910390fd5b63150b7a0260e01b905095945050505050565b6106b1611587565b60008060009050600080600460008581526020019081526020016000206040518060600160405290816000820160009054906101000a900462ffffff1662ffffff1662ffffff1681526020016000820160039054906101000a900465ffffffffffff1665ffffffffffff1665ffffffffffff1681526020016000820160099054906101000a900473ffffffffffffffffffffffffffffffffffffffff1673ffffffffffffffffffffffffffffffffffffffff1673ffffffffffffffffffffffffffffffffffffffff168152505090506000816020015165ffffffffffff1690506201518081426107a19190611e58565b69152d02c7e14af68000006107b69190611e8c565b6107c09190611f15565b836107cb9190611b5f565b9250600062015180670de0b6b3a7640000866107e79190611e8c565b6107f19190611f15565b9050620186a0816108029190611f15565b9050604051806040016040528085815260200182815250965050505050505092915050565b6108343383836000610e34565b5050565b600080600090506000600260009054906101000a900473ffffffffffffffffffffffffffffffffffffffff1673ffffffffffffffffffffffffffffffffffffffff166318160ddd6040518163ffffffff1660e01b8152600401602060405180830381865afa1580156108ae573d6000803e3d6000fd5b505050506040513d601f19601f820116820180604052508101906108d29190611f5b565b90506000600190505b81811161096f578473ffffffffffffffffffffffffffffffffffffffff166004600083815260200190815260200160002060000160099054906101000a900473ffffffffffffffffffffffffffffffffffffffff1673ffffffffffffffffffffffffffffffffffffffff16141561095c576001836109599190611b5f565b92505b808061096790611d7d565b9150506108db565b508192505050919050565b6109826111e7565b73ffffffffffffffffffffffffffffffffffffffff166109a0610cf0565b73ffffffffffffffffffffffffffffffffffffffff16146109f6576040517f08c379a00000000000000000000000000000000000000000000000000000000081526004016109ed90611fd4565b60405180910390fd5b610a0060006111ef565b565b60015481565b60046020528060005260406000206000915090508060000160009054906101000a900462ffffff16908060000160039054906101000a900465ffffffffffff16908060000160099054906101000a900473ffffffffffffffffffffffffffffffffffffffff16905083565b60606000600260009054906101000a900473ffffffffffffffffffffffffffffffffffffffff1673ffffffffffffffffffffffffffffffffffffffff166318160ddd6040518163ffffffff1660e01b8152600401602060405180830381865afa158015610ae4573d6000803e3d6000fd5b505050506040513d601f19601f82011682018060405250810190610b089190611f5b565b905060008167ffffffffffffffff811115610b2657610b25611ff4565b5b604051908082528060200260200182016040528015610b545781602001602082028036833780820191505090505b509050600080600190505b838111610c3d578573ffffffffffffffffffffffffffffffffffffffff166004600083815260200190815260200160002060000160099054906101000a900473ffffffffffffffffffffffffffffffffffffffff1673ffffffffffffffffffffffffffffffffffffffff161415610c2a576004600082815260200190815260200160002060000160009054906101000a900462ffffff1662ffffff16838381518110610c0e57610c0d611bb5565b5b602002602001018181525050600182610c279190611b5f565b91505b8080610c3590611d7d565b915050610b5f565b5060008167ffffffffffffffff811115610c5a57610c59611ff4565b5b604051908082528060200260200182016040528015610c885781602001602082028036833780820191505090505b50905060005b82811015610ce357838181518110610ca957610ca8611bb5565b5b6020026020010151828281518110610cc457610cc3611bb5565b5b6020026020010181815250508080610cdb90611d7d565b915050610c8e565b5080945050505050919050565b60008060009054906101000a900473ffffffffffffffffffffffffffffffffffffffff16905090565b610d268383836000610e34565b505050565b610d383383836001610e34565b5050565b610d446111e7565b73ffffffffffffffffffffffffffffffffffffffff16610d62610cf0565b73ffffffffffffffffffffffffffffffffffffffff1614610db8576040517f08c379a0000000000000000000000000000000000000000000000000000000008152600401610daf90611fd4565b60405180910390fd5b600073ffffffffffffffffffffffffffffffffffffffff168173ffffffffffffffffffffffffffffffffffffffff161415610e28576040517f08c379a0000000000000000000000000000000000000000000000000000000008152600401610e1f90612095565b60405180910390fd5b610e31816111ef565b50565b6000806000905060005b858590508110156110eb57858582818110610e5c57610e5b611bb5565b5b9050602002013592506000600460008581526020019081526020016000206040518060600160405290816000820160009054906101000a900462ffffff1662ffffff1662ffffff1681526020016000820160039054906101000a900465ffffffffffff1665ffffffffffff1665ffffffffffff1681526020016000820160099054906101000a900473ffffffffffffffffffffffffffffffffffffffff1673ffffffffffffffffffffffffffffffffffffffff1673ffffffffffffffffffffffffffffffffffffffff168152505090508773ffffffffffffffffffffffffffffffffffffffff16816040015173ffffffffffffffffffffffffffffffffffffffff1614610f9e576040517f08c379a0000000000000000000000000000000000000000000000000000000008152600401610f9590612101565b60405180910390fd5b6000816020015165ffffffffffff169050620151808142610fbf9190611e58565b69152d02c7e14af6800000610fd49190611e8c565b610fde9190611f15565b84610fe99190611b5f565b935060405180606001604052808662ffffff1681526020014265ffffffffffff1681526020018a73ffffffffffffffffffffffffffffffffffffffff168152506004600087815260200190815260200160002060008201518160000160006101000a81548162ffffff021916908362ffffff16021790555060208201518160000160036101000a81548165ffffffffffff021916908365ffffffffffff16021790555060408201518160000160096101000a81548173ffffffffffffffffffffffffffffffffffffffff021916908373ffffffffffffffffffffffffffffffffffffffff160217905550905050505080806110e390611d7d565b915050610e3e565b50600081111561119457600a816111029190611f15565b9050600360009054906101000a900473ffffffffffffffffffffffffffffffffffffffff1673ffffffffffffffffffffffffffffffffffffffff166340c10f1987836040518363ffffffff1660e01b8152600401611161929190612121565b600060405180830381600087803b15801561117b57600080fd5b505af115801561118f573d6000803e3d6000fd5b505050505b82156111a6576111a58686866112b3565b5b7fd8138f8a3f377c5259ca548e70e4c2de94f129f5a11036a15b69513cba2b426a86826040516111d7929190612121565b60405180910390a1505050505050565b600033905090565b60008060009054906101000a900473ffffffffffffffffffffffffffffffffffffffff169050816000806101000a81548173ffffffffffffffffffffffffffffffffffffffff021916908373ffffffffffffffffffffffffffffffffffffffff1602179055508173ffffffffffffffffffffffffffffffffffffffff168173ffffffffffffffffffffffffffffffffffffffff167f8be0079c531659141344cd1fd0a4f28419497f9722a3daafe3b4186f6b6457e060405160405180910390a35050565b600082829050600160008282546112ca9190611e58565b9250508190555060005b83839050811015611580578383828181106112f2576112f1611bb5565b5b9050602002013591506000600460008481526020019081526020016000206040518060600160405290816000820160009054906101000a900462ffffff1662ffffff1662ffffff1681526020016000820160039054906101000a900465ffffffffffff1665ffffffffffff1665ffffffffffff1681526020016000820160099054906101000a900473ffffffffffffffffffffffffffffffffffffffff1673ffffffffffffffffffffffffffffffffffffffff1673ffffffffffffffffffffffffffffffffffffffff168152505090503373ffffffffffffffffffffffffffffffffffffffff16816040015173ffffffffffffffffffffffffffffffffffffffff1614611434576040517f08c379a000000000000000000000000000000000000000000000000000000000815260040161142b90612101565b60405180910390fd5b60046000848152602001908152602001600020600080820160006101000a81549062ffffff02191690556000820160036101000a81549065ffffffffffff02191690556000820160096101000a81549073ffffffffffffffffffffffffffffffffffffffff021916905550507fc486b9458a8637650d84d262414833a5a457bc91ae86b7da110386c8c3fa255b8684426040516114d393929190611d46565b60405180910390a1600260009054906101000a900473ffffffffffffffffffffffffffffffffffffffff1673ffffffffffffffffffffffffffffffffffffffff166323b872dd3088866040518463ffffffff1660e01b815260040161153a93929190611d0f565b600060405180830381600087803b15801561155457600080fd5b505af1158015611568573d6000803e3d6000fd5b5050505050808061157890611d7d565b9150506112d4565b5050505050565b6040518060400160405280600290602082028036833780820191505090505090565b600080fd5b600080fd5b600080fd5b600080fd5b600080fd5b60008083601f8401126115d8576115d76115b3565b5b8235905067ffffffffffffffff8111156115f5576115f46115b8565b5b602083019150836020820283011115611611576116106115bd565b5b9250929050565b6000806020838503121561162f5761162e6115a9565b5b600083013567ffffffffffffffff81111561164d5761164c6115ae565b5b611659858286016115c2565b92509250509250929050565b600073ffffffffffffffffffffffffffffffffffffffff82169050919050565b600061169082611665565b9050919050565b6116a081611685565b81146116ab57600080fd5b50565b6000813590506116bd81611697565b92915050565b6000819050919050565b6116d6816116c3565b81146116e157600080fd5b50565b6000813590506116f3816116cd565b92915050565b60008083601f84011261170f5761170e6115b3565b5b8235905067ffffffffffffffff81111561172c5761172b6115b8565b5b602083019150836001820283011115611748576117476115bd565b5b9250929050565b60008060008060006080868803121561176b5761176a6115a9565b5b6000611779888289016116ae565b955050602061178a888289016116ae565b945050604061179b888289016116e4565b935050606086013567ffffffffffffffff8111156117bc576117bb6115ae565b5b6117c8888289016116f9565b92509250509295509295909350565b60007fffffffff0000000000000000000000000000000000000000000000000000000082169050919050565b61180c816117d7565b82525050565b60006020820190506118276000830184611803565b92915050565b600060029050919050565b600081905092915050565b6000819050919050565b611856816116c3565b82525050565b6000611868838361184d565b60208301905092915050565b6000602082019050919050565b61188a8161182d565b6118948184611838565b925061189f82611843565b8060005b838110156118d05781516118b7878261185c565b96506118c283611874565b9250506001810190506118a3565b505050505050565b60006040820190506118ed6000830184611881565b92915050565b600060208284031215611909576119086115a9565b5b6000611917848285016116ae565b91505092915050565b611929816116c3565b82525050565b60006020820190506119446000830184611920565b92915050565b6000602082840312156119605761195f6115a9565b5b600061196e848285016116e4565b91505092915050565b600062ffffff82169050919050565b61198f81611977565b82525050565b600065ffffffffffff82169050919050565b6119b081611995565b82525050565b6119bf81611685565b82525050565b60006060820190506119da6000830186611986565b6119e760208301856119a7565b6119f460408301846119b6565b949350505050565b600081519050919050565b600082825260208201905092915050565b6000819050602082019050919050565b6000602082019050919050565b6000611a40826119fc565b611a4a8185611a07565b9350611a5583611a18565b8060005b83811015611a86578151611a6d888261185c565b9750611a7883611a28565b925050600181019050611a59565b5085935050505092915050565b60006020820190508181036000830152611aad8184611a35565b905092915050565b6000602082019050611aca60008301846119b6565b92915050565b600080600060408486031215611ae957611ae86115a9565b5b6000611af7868287016116ae565b935050602084013567ffffffffffffffff811115611b1857611b176115ae565b5b611b24868287016115c2565b92509250509250925092565b7f4e487b7100000000000000000000000000000000000000000000000000000000600052601160045260246000fd5b6000611b6a826116c3565b9150611b75836116c3565b9250827fffffffffffffffffffffffffffffffffffffffffffffffffffffffffffffffff03821115611baa57611ba9611b30565b5b828201905092915050565b7f4e487b7100000000000000000000000000000000000000000000000000000000600052603260045260246000fd5b600081519050611bf381611697565b92915050565b600060208284031215611c0f57611c0e6115a9565b5b6000611c1d84828501611be4565b91505092915050565b600082825260208201905092915050565b7f6e6f7420796f757220746f6b656e000000000000000000000000000000000000600082015250565b6000611c6d600e83611c26565b9150611c7882611c37565b602082019050919050565b60006020820190508181036000830152611c9c81611c60565b9050919050565b7f616c7265616479207374616b6564000000000000000000000000000000000000600082015250565b6000611cd9600e83611c26565b9150611ce482611ca3565b602082019050919050565b60006020820190508181036000830152611d0881611ccc565b9050919050565b6000606082019050611d2460008301866119b6565b611d3160208301856119b6565b611d3e6040830184611920565b949350505050565b6000606082019050611d5b60008301866119b6565b611d686020830185611920565b611d756040830184611920565b949350505050565b6000611d88826116c3565b91507fffffffffffffffffffffffffffffffffffffffffffffffffffffffffffffffff821415611dbb57611dba611b30565b5b600182019050919050565b7f43616e6e6f742073656e64206e66747320746f205661756c742064697265637460008201527f6c79000000000000000000000000000000000000000000000000000000000000602082015250565b6000611e22602283611c26565b9150611e2d82611dc6565b604082019050919050565b60006020820190508181036000830152611e5181611e15565b9050919050565b6000611e63826116c3565b9150611e6e836116c3565b925082821015611e8157611e80611b30565b5b828203905092915050565b6000611e97826116c3565b9150611ea2836116c3565b9250817fffffffffffffffffffffffffffffffffffffffffffffffffffffffffffffffff0483118215151615611edb57611eda611b30565b5b828202905092915050565b7f4e487b7100000000000000000000000000000000000000000000000000000000600052601260045260246000fd5b6000611f20826116c3565b9150611f2b836116c3565b925082611f3b57611f3a611ee6565b5b828204905092915050565b600081519050611f55816116cd565b92915050565b600060208284031215611f7157611f706115a9565b5b6000611f7f84828501611f46565b91505092915050565b7f4f776e61626c653a2063616c6c6572206973206e6f7420746865206f776e6572600082015250565b6000611fbe602083611c26565b9150611fc982611f88565b602082019050919050565b60006020820190508181036000830152611fed81611fb1565b9050919050565b7f4e487b7100000000000000000000000000000000000000000000000000000000600052604160045260246000fd5b7f4f776e61626c653a206e6577206f776e657220697320746865207a65726f206160008201527f6464726573730000000000000000000000000000000000000000000000000000602082015250565b600061207f602683611c26565b915061208a82612023565b604082019050919050565b600060208201905081810360008301526120ae81612072565b9050919050565b7f6e6f7420616e206f776e65720000000000000000000000000000000000000000600082015250565b60006120eb600c83611c26565b91506120f6826120b5565b602082019050919050565b6000602082019050818103600083015261211a816120de565b9050919050565b600060408201905061213660008301856119b6565b6121436020830184611920565b939250505056fea26469706673582212202dd2e4764df3eb8146efcec9ef58ff3de7b3f09385c46c040cf8eb5fbfbd1d3064736f6c634300080a0033",
  "immutableReferences": {},
  "source": "// SPDX-License-Identifier: MIT LICENSE\r\n\r\npragma solidity ^0.8.4;\r\n\r\nimport \"./ScratchNFT.sol\";\r\nimport \"./ScratchReward.sol\";\r\n\r\ncontract StakingVault is Ownable, IERC721Receiver {\r\n\r\n  uint256 public totalStaked;\r\n  \r\n  // struct to store a stake's token, owner, and earning values\r\n  struct Stake {\r\n    uint24 tokenId;\r\n    uint48 timestamp;\r\n    address owner;\r\n  }\r\n\r\n  event NFTStaked(address owner, uint256 tokenId, uint256 value);\r\n  event NFTUnstaked(address owner, uint256 tokenId, uint256 value);\r\n  event Claimed(address owner, uint256 amount);\r\n\r\n  // reference to the Block NFT contract\r\n  ScratchNFT nft;\r\n  ScratchReward token;\r\n\r\n  // maps tokenId to stake\r\n  mapping(uint256 => Stake) public vault; \r\n\r\n   constructor(ScratchNFT _nft, ScratchReward _token) { \r\n    nft = _nft;\r\n    token = _token;\r\n  }\r\n\r\n  function stake(uint256[] calldata tokenIds) external {\r\n    uint256 tokenId;\r\n    totalStaked += tokenIds.length;\r\n    for (uint i = 0; i < tokenIds.length; i++) {\r\n      tokenId = tokenIds[i];\r\n      require(nft.ownerOf(tokenId) == msg.sender, \"not your token\");\r\n      require(vault[tokenId].tokenId == 0, 'already staked');\r\n\r\n      nft.transferFrom(msg.sender, address(this), tokenId);\r\n      emit NFTStaked(msg.sender, tokenId, block.timestamp);\r\n\r\n      vault[tokenId] = Stake({\r\n        owner: msg.sender,\r\n        tokenId: uint24(tokenId),\r\n        timestamp: uint48(block.timestamp)\r\n      });\r\n    }\r\n  }\r\n\r\n  function _unstakeMany(address account, uint256[] calldata tokenIds) internal {\r\n    uint256 tokenId;\r\n    totalStaked -= tokenIds.length;\r\n    for (uint i = 0; i < tokenIds.length; i++) {\r\n      tokenId = tokenIds[i];\r\n      Stake memory staked = vault[tokenId];\r\n      require(staked.owner == msg.sender, \"not an owner\");\r\n\r\n      delete vault[tokenId];\r\n      emit NFTUnstaked(account, tokenId, block.timestamp);\r\n      nft.transferFrom(address(this), account, tokenId);\r\n    }\r\n  }\r\n\r\n  function claim(uint256[] calldata tokenIds) external {\r\n      _claim(msg.sender, tokenIds, false);\r\n  }\r\n\r\n  function claimForAddress(address account, uint256[] calldata tokenIds) external {\r\n      _claim(account, tokenIds, false);\r\n  }\r\n\r\n  function unstake(uint256[] calldata tokenIds) external {\r\n      _claim(msg.sender, tokenIds, true);\r\n  }\r\n\r\n  function _claim(address account, uint256[] calldata tokenIds, bool _unstake) internal {\r\n    uint256 tokenId;\r\n    uint256 earned = 0;\r\n\r\n    for (uint i = 0; i < tokenIds.length; i++) {\r\n      tokenId = tokenIds[i];\r\n      Stake memory staked = vault[tokenId];\r\n      require(staked.owner == account, \"not an owner\");\r\n      uint256 stakedAt = staked.timestamp;\r\n      earned += 100000 ether * (block.timestamp - stakedAt) / 1 days;\r\n      vault[tokenId] = Stake({\r\n        owner: account,\r\n        tokenId: uint24(tokenId),\r\n        timestamp: uint48(block.timestamp)\r\n      });\r\n\r\n    }\r\n    if (earned > 0) {\r\n      earned = earned / 10;\r\n      token.mint(account, earned);\r\n    }\r\n    if (_unstake) {\r\n      _unstakeMany(account, tokenIds);\r\n    }\r\n    emit Claimed(account, earned);\r\n  }\r\n\r\n  function earningInfo(uint256[] calldata tokenIds) external view returns (uint256[2] memory info) {\r\n     uint256 tokenId;\r\n     uint256 totalScore = 0;\r\n     uint256 earned = 0;\r\n      Stake memory staked = vault[tokenId];\r\n      uint256 stakedAt = staked.timestamp;\r\n      earned += 100000 ether * (block.timestamp - stakedAt) / 1 days;\r\n    uint256 earnRatePerSecond = totalScore * 1 ether / 1 days;\r\n    earnRatePerSecond = earnRatePerSecond / 100000;\r\n    // earned, earnRatePerSecond\r\n    return [earned, earnRatePerSecond];\r\n  }\r\n\r\n  // should never be used inside of transaction because of gas fee\r\n  function balanceOf(address account) public view returns (uint256) {\r\n    uint256 balance = 0;\r\n    uint256 supply = nft.totalSupply();\r\n    for(uint i = 1; i <= supply; i++) {\r\n      if (vault[i].owner == account) {\r\n        balance += 1;\r\n      }\r\n    }\r\n    return balance;\r\n  }\r\n\r\n  // should never be used inside of transaction because of gas fee\r\n  function tokensOfOwner(address account) public view returns (uint256[] memory ownerTokens) {\r\n\r\n    uint256 supply = nft.totalSupply();\r\n    uint256[] memory tmp = new uint256[](supply);\r\n\r\n    uint256 index = 0;\r\n    for(uint tokenId = 1; tokenId <= supply; tokenId++) {\r\n      if (vault[tokenId].owner == account) {\r\n        tmp[index] = vault[tokenId].tokenId;\r\n        index +=1;\r\n      }\r\n    }\r\n\r\n    uint256[] memory tokens = new uint256[](index);\r\n    for(uint i = 0; i < index; i++) {\r\n      tokens[i] = tmp[i];\r\n    }\r\n\r\n    return tokens;\r\n  }\r\n\r\n  function onERC721Received(\r\n        address,\r\n        address from,\r\n        uint256,\r\n        bytes calldata\r\n    ) external pure override returns (bytes4) {\r\n      require(from == address(0x0), \"Cannot send nfts to Vault directly\");\r\n      return IERC721Receiver.onERC721Received.selector;\r\n    }\r\n  \r\n}\r\n",
  "sourcePath": "/home/aamer/Ixiono/staking_module/contracts/StakingVault.sol",
  "compiler": {
    "name": "solc",
    "version": "0.8.10+commit.fc410830.Emscripten.clang"
  },
  "schemaVersion": "3.4.3",
  "updatedAt": "2022-05-31T10:33:17.476Z",
  "networkType": "ethereum",
  "devdoc": {
    "kind": "dev",
    "methods": {
      "owner()": {
        "details": "Returns the address of the current owner."
      },
      "renounceOwnership()": {
        "details": "Leaves the contract without owner. It will not be possible to call `onlyOwner` functions anymore. Can only be called by the current owner. NOTE: Renouncing ownership will leave the contract without an owner, thereby removing any functionality that is only available to the owner."
      },
      "transferOwnership(address)": {
        "details": "Transfers ownership of the contract to a new account (`newOwner`). Can only be called by the current owner."
      }
    },
    "version": 1
  },
  "userdoc": {
    "kind": "user",
    "methods": {},
    "version": 1
  }
}